{
  "_format": "hh-sol-artifact-1",
  "contractName": "MyToken",
  "sourceName": "contracts/MyToken.sol",
  "abi": [
    {
      "inputs": [],
      "stateMutability": "nonpayable",
      "type": "constructor"
    },
    {
      "inputs": [],
      "name": "InvalidShortString",
      "type": "error"
    },
    {
      "inputs": [
        {
          "internalType": "string",
          "name": "str",
          "type": "string"
        }
      ],
      "name": "StringTooLong",
      "type": "error"
    },
    {
      "anonymous": false,
      "inputs": [
        {
          "indexed": true,
          "internalType": "address",
          "name": "owner",
          "type": "address"
        },
        {
          "indexed": true,
          "internalType": "address",
          "name": "spender",
          "type": "address"
        },
        {
          "indexed": false,
          "internalType": "uint256",
          "name": "value",
          "type": "uint256"
        }
      ],
      "name": "Approval",
      "type": "event"
    },
    {
      "anonymous": false,
      "inputs": [
        {
          "indexed": true,
          "internalType": "address",
          "name": "delegator",
          "type": "address"
        },
        {
          "indexed": true,
          "internalType": "address",
          "name": "fromDelegate",
          "type": "address"
        },
        {
          "indexed": true,
          "internalType": "address",
          "name": "toDelegate",
          "type": "address"
        }
      ],
      "name": "DelegateChanged",
      "type": "event"
    },
    {
      "anonymous": false,
      "inputs": [
        {
          "indexed": true,
          "internalType": "address",
          "name": "delegate",
          "type": "address"
        },
        {
          "indexed": false,
          "internalType": "uint256",
          "name": "previousBalance",
          "type": "uint256"
        },
        {
          "indexed": false,
          "internalType": "uint256",
          "name": "newBalance",
          "type": "uint256"
        }
      ],
      "name": "DelegateVotesChanged",
      "type": "event"
    },
    {
      "anonymous": false,
      "inputs": [],
      "name": "EIP712DomainChanged",
      "type": "event"
    },
    {
      "anonymous": false,
      "inputs": [
        {
          "indexed": true,
          "internalType": "bytes32",
          "name": "role",
          "type": "bytes32"
        },
        {
          "indexed": true,
          "internalType": "bytes32",
          "name": "previousAdminRole",
          "type": "bytes32"
        },
        {
          "indexed": true,
          "internalType": "bytes32",
          "name": "newAdminRole",
          "type": "bytes32"
        }
      ],
      "name": "RoleAdminChanged",
      "type": "event"
    },
    {
      "anonymous": false,
      "inputs": [
        {
          "indexed": true,
          "internalType": "bytes32",
          "name": "role",
          "type": "bytes32"
        },
        {
          "indexed": true,
          "internalType": "address",
          "name": "account",
          "type": "address"
        },
        {
          "indexed": true,
          "internalType": "address",
          "name": "sender",
          "type": "address"
        }
      ],
      "name": "RoleGranted",
      "type": "event"
    },
    {
      "anonymous": false,
      "inputs": [
        {
          "indexed": true,
          "internalType": "bytes32",
          "name": "role",
          "type": "bytes32"
        },
        {
          "indexed": true,
          "internalType": "address",
          "name": "account",
          "type": "address"
        },
        {
          "indexed": true,
          "internalType": "address",
          "name": "sender",
          "type": "address"
        }
      ],
      "name": "RoleRevoked",
      "type": "event"
    },
    {
      "anonymous": false,
      "inputs": [
        {
          "indexed": true,
          "internalType": "address",
          "name": "from",
          "type": "address"
        },
        {
          "indexed": true,
          "internalType": "address",
          "name": "to",
          "type": "address"
        },
        {
          "indexed": false,
          "internalType": "uint256",
          "name": "value",
          "type": "uint256"
        }
      ],
      "name": "Transfer",
      "type": "event"
    },
    {
      "inputs": [],
      "name": "CLOCK_MODE",
      "outputs": [
        {
          "internalType": "string",
          "name": "",
          "type": "string"
        }
      ],
      "stateMutability": "view",
      "type": "function"
    },
    {
      "inputs": [],
      "name": "DEFAULT_ADMIN_ROLE",
      "outputs": [
        {
          "internalType": "bytes32",
          "name": "",
          "type": "bytes32"
        }
      ],
      "stateMutability": "view",
      "type": "function"
    },
    {
      "inputs": [],
      "name": "DOMAIN_SEPARATOR",
      "outputs": [
        {
          "internalType": "bytes32",
          "name": "",
          "type": "bytes32"
        }
      ],
      "stateMutability": "view",
      "type": "function"
    },
    {
      "inputs": [],
      "name": "MINTER_ROLE",
      "outputs": [
        {
          "internalType": "bytes32",
          "name": "",
          "type": "bytes32"
        }
      ],
      "stateMutability": "view",
      "type": "function"
    },
    {
      "inputs": [
        {
          "internalType": "address",
          "name": "owner",
          "type": "address"
        },
        {
          "internalType": "address",
          "name": "spender",
          "type": "address"
        }
      ],
      "name": "allowance",
      "outputs": [
        {
          "internalType": "uint256",
          "name": "",
          "type": "uint256"
        }
      ],
      "stateMutability": "view",
      "type": "function"
    },
    {
      "inputs": [
        {
          "internalType": "address",
          "name": "spender",
          "type": "address"
        },
        {
          "internalType": "uint256",
          "name": "amount",
          "type": "uint256"
        }
      ],
      "name": "approve",
      "outputs": [
        {
          "internalType": "bool",
          "name": "",
          "type": "bool"
        }
      ],
      "stateMutability": "nonpayable",
      "type": "function"
    },
    {
      "inputs": [
        {
          "internalType": "address",
          "name": "account",
          "type": "address"
        }
      ],
      "name": "balanceOf",
      "outputs": [
        {
          "internalType": "uint256",
          "name": "",
          "type": "uint256"
        }
      ],
      "stateMutability": "view",
      "type": "function"
    },
    {
      "inputs": [
        {
          "internalType": "address",
          "name": "account",
          "type": "address"
        },
        {
          "internalType": "uint32",
          "name": "pos",
          "type": "uint32"
        }
      ],
      "name": "checkpoints",
      "outputs": [
        {
          "components": [
            {
              "internalType": "uint32",
              "name": "fromBlock",
              "type": "uint32"
            },
            {
              "internalType": "uint224",
              "name": "votes",
              "type": "uint224"
            }
          ],
          "internalType": "struct ERC20Votes.Checkpoint",
          "name": "",
          "type": "tuple"
        }
      ],
      "stateMutability": "view",
      "type": "function"
    },
    {
      "inputs": [],
      "name": "clock",
      "outputs": [
        {
          "internalType": "uint48",
          "name": "",
          "type": "uint48"
        }
      ],
      "stateMutability": "view",
      "type": "function"
    },
    {
      "inputs": [],
      "name": "decimals",
      "outputs": [
        {
          "internalType": "uint8",
          "name": "",
          "type": "uint8"
        }
      ],
      "stateMutability": "view",
      "type": "function"
    },
    {
      "inputs": [
        {
          "internalType": "address",
          "name": "spender",
          "type": "address"
        },
        {
          "internalType": "uint256",
          "name": "subtractedValue",
          "type": "uint256"
        }
      ],
      "name": "decreaseAllowance",
      "outputs": [
        {
          "internalType": "bool",
          "name": "",
          "type": "bool"
        }
      ],
      "stateMutability": "nonpayable",
      "type": "function"
    },
    {
      "inputs": [
        {
          "internalType": "address",
          "name": "delegatee",
          "type": "address"
        }
      ],
      "name": "delegate",
      "outputs": [],
      "stateMutability": "nonpayable",
      "type": "function"
    },
    {
      "inputs": [
        {
          "internalType": "address",
          "name": "delegatee",
          "type": "address"
        },
        {
          "internalType": "uint256",
          "name": "nonce",
          "type": "uint256"
        },
        {
          "internalType": "uint256",
          "name": "expiry",
          "type": "uint256"
        },
        {
          "internalType": "uint8",
          "name": "v",
          "type": "uint8"
        },
        {
          "internalType": "bytes32",
          "name": "r",
          "type": "bytes32"
        },
        {
          "internalType": "bytes32",
          "name": "s",
          "type": "bytes32"
        }
      ],
      "name": "delegateBySig",
      "outputs": [],
      "stateMutability": "nonpayable",
      "type": "function"
    },
    {
      "inputs": [
        {
          "internalType": "address",
          "name": "account",
          "type": "address"
        }
      ],
      "name": "delegates",
      "outputs": [
        {
          "internalType": "address",
          "name": "",
          "type": "address"
        }
      ],
      "stateMutability": "view",
      "type": "function"
    },
    {
      "inputs": [],
      "name": "eip712Domain",
      "outputs": [
        {
          "internalType": "bytes1",
          "name": "fields",
          "type": "bytes1"
        },
        {
          "internalType": "string",
          "name": "name",
          "type": "string"
        },
        {
          "internalType": "string",
          "name": "version",
          "type": "string"
        },
        {
          "internalType": "uint256",
          "name": "chainId",
          "type": "uint256"
        },
        {
          "internalType": "address",
          "name": "verifyingContract",
          "type": "address"
        },
        {
          "internalType": "bytes32",
          "name": "salt",
          "type": "bytes32"
        },
        {
          "internalType": "uint256[]",
          "name": "extensions",
          "type": "uint256[]"
        }
      ],
      "stateMutability": "view",
      "type": "function"
    },
    {
      "inputs": [
        {
          "internalType": "uint256",
          "name": "timepoint",
          "type": "uint256"
        }
      ],
      "name": "getPastTotalSupply",
      "outputs": [
        {
          "internalType": "uint256",
          "name": "",
          "type": "uint256"
        }
      ],
      "stateMutability": "view",
      "type": "function"
    },
    {
      "inputs": [
        {
          "internalType": "address",
          "name": "account",
          "type": "address"
        },
        {
          "internalType": "uint256",
          "name": "timepoint",
          "type": "uint256"
        }
      ],
      "name": "getPastVotes",
      "outputs": [
        {
          "internalType": "uint256",
          "name": "",
          "type": "uint256"
        }
      ],
      "stateMutability": "view",
      "type": "function"
    },
    {
      "inputs": [
        {
          "internalType": "bytes32",
          "name": "role",
          "type": "bytes32"
        }
      ],
      "name": "getRoleAdmin",
      "outputs": [
        {
          "internalType": "bytes32",
          "name": "",
          "type": "bytes32"
        }
      ],
      "stateMutability": "view",
      "type": "function"
    },
    {
      "inputs": [
        {
          "internalType": "address",
          "name": "account",
          "type": "address"
        }
      ],
      "name": "getVotes",
      "outputs": [
        {
          "internalType": "uint256",
          "name": "",
          "type": "uint256"
        }
      ],
      "stateMutability": "view",
      "type": "function"
    },
    {
      "inputs": [
        {
          "internalType": "bytes32",
          "name": "role",
          "type": "bytes32"
        },
        {
          "internalType": "address",
          "name": "account",
          "type": "address"
        }
      ],
      "name": "grantRole",
      "outputs": [],
      "stateMutability": "nonpayable",
      "type": "function"
    },
    {
      "inputs": [
        {
          "internalType": "bytes32",
          "name": "role",
          "type": "bytes32"
        },
        {
          "internalType": "address",
          "name": "account",
          "type": "address"
        }
      ],
      "name": "hasRole",
      "outputs": [
        {
          "internalType": "bool",
          "name": "",
          "type": "bool"
        }
      ],
      "stateMutability": "view",
      "type": "function"
    },
    {
      "inputs": [
        {
          "internalType": "address",
          "name": "spender",
          "type": "address"
        },
        {
          "internalType": "uint256",
          "name": "addedValue",
          "type": "uint256"
        }
      ],
      "name": "increaseAllowance",
      "outputs": [
        {
          "internalType": "bool",
          "name": "",
          "type": "bool"
        }
      ],
      "stateMutability": "nonpayable",
      "type": "function"
    },
    {
      "inputs": [
        {
          "internalType": "address",
          "name": "to",
          "type": "address"
        },
        {
          "internalType": "uint256",
          "name": "amount",
          "type": "uint256"
        }
      ],
      "name": "mint",
      "outputs": [],
      "stateMutability": "nonpayable",
      "type": "function"
    },
    {
      "inputs": [],
      "name": "name",
      "outputs": [
        {
          "internalType": "string",
          "name": "",
          "type": "string"
        }
      ],
      "stateMutability": "view",
      "type": "function"
    },
    {
      "inputs": [
        {
          "internalType": "address",
          "name": "owner",
          "type": "address"
        }
      ],
      "name": "nonces",
      "outputs": [
        {
          "internalType": "uint256",
          "name": "",
          "type": "uint256"
        }
      ],
      "stateMutability": "view",
      "type": "function"
    },
    {
      "inputs": [
        {
          "internalType": "address",
          "name": "account",
          "type": "address"
        }
      ],
      "name": "numCheckpoints",
      "outputs": [
        {
          "internalType": "uint32",
          "name": "",
          "type": "uint32"
        }
      ],
      "stateMutability": "view",
      "type": "function"
    },
    {
      "inputs": [
        {
          "internalType": "address",
          "name": "owner",
          "type": "address"
        },
        {
          "internalType": "address",
          "name": "spender",
          "type": "address"
        },
        {
          "internalType": "uint256",
          "name": "value",
          "type": "uint256"
        },
        {
          "internalType": "uint256",
          "name": "deadline",
          "type": "uint256"
        },
        {
          "internalType": "uint8",
          "name": "v",
          "type": "uint8"
        },
        {
          "internalType": "bytes32",
          "name": "r",
          "type": "bytes32"
        },
        {
          "internalType": "bytes32",
          "name": "s",
          "type": "bytes32"
        }
      ],
      "name": "permit",
      "outputs": [],
      "stateMutability": "nonpayable",
      "type": "function"
    },
    {
      "inputs": [
        {
          "internalType": "bytes32",
          "name": "role",
          "type": "bytes32"
        },
        {
          "internalType": "address",
          "name": "account",
          "type": "address"
        }
      ],
      "name": "renounceRole",
      "outputs": [],
      "stateMutability": "nonpayable",
      "type": "function"
    },
    {
      "inputs": [
        {
          "internalType": "bytes32",
          "name": "role",
          "type": "bytes32"
        },
        {
          "internalType": "address",
          "name": "account",
          "type": "address"
        }
      ],
      "name": "revokeRole",
      "outputs": [],
      "stateMutability": "nonpayable",
      "type": "function"
    },
    {
      "inputs": [
        {
          "internalType": "bytes4",
          "name": "interfaceId",
          "type": "bytes4"
        }
      ],
      "name": "supportsInterface",
      "outputs": [
        {
          "internalType": "bool",
          "name": "",
          "type": "bool"
        }
      ],
      "stateMutability": "view",
      "type": "function"
    },
    {
      "inputs": [],
      "name": "symbol",
      "outputs": [
        {
          "internalType": "string",
          "name": "",
          "type": "string"
        }
      ],
      "stateMutability": "view",
      "type": "function"
    },
    {
      "inputs": [],
      "name": "totalSupply",
      "outputs": [
        {
          "internalType": "uint256",
          "name": "",
          "type": "uint256"
        }
      ],
      "stateMutability": "view",
      "type": "function"
    },
    {
      "inputs": [
        {
          "internalType": "address",
          "name": "to",
          "type": "address"
        },
        {
          "internalType": "uint256",
          "name": "amount",
          "type": "uint256"
        }
      ],
      "name": "transfer",
      "outputs": [
        {
          "internalType": "bool",
          "name": "",
          "type": "bool"
        }
      ],
      "stateMutability": "nonpayable",
      "type": "function"
    },
    {
      "inputs": [
        {
          "internalType": "address",
          "name": "from",
          "type": "address"
        },
        {
          "internalType": "address",
          "name": "to",
          "type": "address"
        },
        {
          "internalType": "uint256",
          "name": "amount",
          "type": "uint256"
        }
      ],
      "name": "transferFrom",
      "outputs": [
        {
          "internalType": "bool",
          "name": "",
          "type": "bool"
        }
      ],
      "stateMutability": "nonpayable",
      "type": "function"
    }
  ],
  "bytecode": "0x6101606040523480156200001257600080fd5b506040518060400160405280600781526020016626bcaa37b5b2b760c91b81525080604051806040016040528060018152602001603160f81b8152506040518060400160405280600781526020016626bcaa37b5b2b760c91b815250604051806040016040528060038152602001624d544b60e81b81525081600390816200009b9190620003a5565b506004620000aa8282620003a5565b505050620000c8600683620001bc60201b62000e661790919060201c565b61012052620000e5816007620001bc602090811b62000e6617901c565b61014052815160208084019190912060e052815190820120610100524660a0526200017360e05161010051604080517f8b73c3c69bb8fe3d512ecc4cf759cc79239f7b179b0ffacaa9a75d522b39400f60208201529081019290925260608201524660808201523060a082015260009060c00160405160208183030381529060405280519060200120905090565b60805250503060c052506200018a6000336200020c565b620001b67f9f2df0fed2c77648de5860a4cc508cd0818c85b8b8a1ab4ceeef8d981c8956a6336200020c565b620004e6565b6000602083511015620001dc57620001d483620002b1565b905062000206565b82620001f383620002fd60201b62000e971760201c565b90620002009082620003a5565b5060ff90505b92915050565b60008281526005602090815260408083206001600160a01b038516845290915290205460ff16620002ad5760008281526005602090815260408083206001600160a01b03851684529091529020805460ff191660011790556200026c3390565b6001600160a01b0316816001600160a01b0316837f2f8788117e7eff1d82e926ec794901d17c78024a50270940304540a733656f0d60405160405180910390a45b5050565b600080829050601f81511115620002e8578260405163305a27a960e01b8152600401620002df919062000471565b60405180910390fd5b8051620002f582620004c1565b179392505050565b90565b634e487b7160e01b600052604160045260246000fd5b600181811c908216806200032b57607f821691505b6020821081036200034c57634e487b7160e01b600052602260045260246000fd5b50919050565b601f821115620003a057600081815260208120601f850160051c810160208610156200037b5750805b601f850160051c820191505b818110156200039c5782815560010162000387565b5050505b505050565b81516001600160401b03811115620003c157620003c162000300565b620003d981620003d2845462000316565b8462000352565b602080601f831160018114620004115760008415620003f85750858301515b600019600386901b1c1916600185901b1785556200039c565b600085815260208120601f198616915b82811015620004425788860151825594840194600190910190840162000421565b5085821015620004615787850151600019600388901b60f8161c191681555b5050505050600190811b01905550565b600060208083528351808285015260005b81811015620004a05785810183015185820160400152820162000482565b506000604082860101526040601f19601f8301168501019250505092915050565b805160208083015191908110156200034c5760001960209190910360031b1b16919050565b60805160a05160c05160e0516101005161012051610140516128c06200054160003960006108f1015260006108c60152600061134c015260006113240152600061127f015260006112a9015260006112d301526128c06000f3fe608060405234801561001057600080fd5b50600436106102065760003560e01c806370a082311161011a578063a217fddf116100ad578063d505accf1161007c578063d505accf1461049a578063d5391393146104ad578063d547741f146104d4578063dd62ed3e146104e7578063f1127ed8146104fa57600080fd5b8063a217fddf14610459578063a457c2d714610461578063a9059cbb14610474578063c3cda5201461048757600080fd5b806391d14854116100e957806391d148541461040c57806391ddadf41461041f57806395d89b411461043e5780639ab24eb01461044657600080fd5b806370a08231146103a25780637ecebe00146103cb57806384b0196e146103de5780638e539e8c146103f957600080fd5b80633644e5151161019d57806340c10f191161016c57806340c10f19146103085780634bf5d7e91461031b578063587cde1e146103235780635c19a95c146103675780636fcfff451461037a57600080fd5b80633644e515146102c757806336568abe146102cf57806339509351146102e25780633a46b1a8146102f557600080fd5b806323b872dd116101d957806323b872dd1461026d578063248a9ca3146102805780632f2ff15d146102a3578063313ce567146102b857600080fd5b806301ffc9a71461020b57806306fdde0314610233578063095ea7b31461024857806318160ddd1461025b575b600080fd5b61021e610219366004612289565b610537565b60405190151581526020015b60405180910390f35b61023b61056e565b60405161022a9190612303565b61021e610256366004612332565b610600565b6002545b60405190815260200161022a565b61021e61027b36600461235c565b610618565b61025f61028e366004612398565b60009081526005602052604090206001015490565b6102b66102b13660046123b1565b61063c565b005b6040516012815260200161022a565b61025f610666565b6102b66102dd3660046123b1565b610675565b61021e6102f0366004612332565b6106f8565b61025f610303366004612332565b61071a565b6102b6610316366004612332565b61079f565b61023b6107d3565b61034f6103313660046123dd565b6001600160a01b039081166000908152600a60205260409020541690565b6040516001600160a01b03909116815260200161022a565b6102b66103753660046123dd565b61086b565b61038d6103883660046123dd565b610878565b60405163ffffffff909116815260200161022a565b61025f6103b03660046123dd565b6001600160a01b031660009081526020819052604090205490565b61025f6103d93660046123dd565b61089a565b6103e66108b8565b60405161022a97969594939291906123f8565b61025f610407366004612398565b610941565b61021e61041a3660046123b1565b6109a8565b6104276109d3565b60405165ffffffffffff909116815260200161022a565b61023b6109de565b61025f6104543660046123dd565b6109ed565b61025f600081565b61021e61046f366004612332565b610a6f565b61021e610482366004612332565b610aea565b6102b661049536600461249f565b610af8565b6102b66104a83660046124f7565b610c2e565b61025f7f9f2df0fed2c77648de5860a4cc508cd0818c85b8b8a1ab4ceeef8d981c8956a681565b6102b66104e23660046123b1565b610d92565b61025f6104f5366004612561565b610db7565b61050d61050836600461258b565b610de2565b60408051825163ffffffff1681526020928301516001600160e01b0316928101929092520161022a565b60006001600160e01b03198216637965db0b60e01b148061056857506301ffc9a760e01b6001600160e01b03198316145b92915050565b60606003805461057d906125cb565b80601f01602080910402602001604051908101604052809291908181526020018280546105a9906125cb565b80156105f65780601f106105cb576101008083540402835291602001916105f6565b820191906000526020600020905b8154815290600101906020018083116105d957829003601f168201915b5050505050905090565b60003361060e818585610e9a565b5060019392505050565b600033610626858285610fbe565b610631858585611038565b506001949350505050565b600082815260056020526040902060010154610657816111e2565b61066183836111ec565b505050565b6000610670611272565b905090565b6001600160a01b03811633146106ea5760405162461bcd60e51b815260206004820152602f60248201527f416363657373436f6e74726f6c3a2063616e206f6e6c792072656e6f756e636560448201526e103937b632b9903337b91039b2b63360891b60648201526084015b60405180910390fd5b6106f4828261139d565b5050565b60003361060e81858561070b8383610db7565b6107159190612615565b610e9a565b60006107246109d3565b65ffffffffffff1682106107765760405162461bcd60e51b815260206004820152601960248201527804552433230566f7465733a20667574757265206c6f6f6b757603c1b60448201526064016106e1565b6001600160a01b0383166000908152600b602052604090206107989083611404565b9392505050565b7f9f2df0fed2c77648de5860a4cc508cd0818c85b8b8a1ab4ceeef8d981c8956a66107c9816111e2565b61066183836114ed565b6060436107de6109d3565b65ffffffffffff16146108335760405162461bcd60e51b815260206004820152601d60248201527f4552433230566f7465733a2062726f6b656e20636c6f636b206d6f646500000060448201526064016106e1565b5060408051808201909152601d81527f6d6f64653d626c6f636b6e756d6265722666726f6d3d64656661756c74000000602082015290565b61087533826114f7565b50565b6001600160a01b0381166000908152600b602052604081205461056890611570565b6001600160a01b038116600090815260086020526040812054610568565b6000606080828080836108ec7f000000000000000000000000000000000000000000000000000000000000000060066115d9565b6109177f000000000000000000000000000000000000000000000000000000000000000060076115d9565b60408051600080825260208201909252600f60f81b9b939a50919850469750309650945092509050565b600061094b6109d3565b65ffffffffffff16821061099d5760405162461bcd60e51b815260206004820152601960248201527804552433230566f7465733a20667574757265206c6f6f6b757603c1b60448201526064016106e1565b610568600c83611404565b60009182526005602090815260408084206001600160a01b0393909316845291905290205460ff1690565b60006106704361167d565b60606004805461057d906125cb565b6001600160a01b0381166000908152600b60205260408120548015610a5c576001600160a01b0383166000908152600b6020526040902080546000198301908110610a3a57610a3a61263e565b60009182526020909120015464010000000090046001600160e01b0316610a5f565b60005b6001600160e01b03169392505050565b60003381610a7d8286610db7565b905083811015610add5760405162461bcd60e51b815260206004820152602560248201527f45524332303a2064656372656173656420616c6c6f77616e63652062656c6f77604482015264207a65726f60d81b60648201526084016106e1565b6106318286868403610e9a565b60003361060e818585611038565b83421115610b485760405162461bcd60e51b815260206004820152601d60248201527f4552433230566f7465733a207369676e6174757265206578706972656400000060448201526064016106e1565b604080517fe48329057bfd03d55e49b547132e39cffd9c1820ad7b9d4c5307691425d15adf60208201526001600160a01b038816918101919091526060810186905260808101859052600090610bc290610bba9060a001604051602081830303815290604052805190602001206116e4565b858585611711565b9050610bcd81611739565b8614610c1b5760405162461bcd60e51b815260206004820152601960248201527f4552433230566f7465733a20696e76616c6964206e6f6e63650000000000000060448201526064016106e1565b610c2581886114f7565b50505050505050565b83421115610c7e5760405162461bcd60e51b815260206004820152601d60248201527f45524332305065726d69743a206578706972656420646561646c696e6500000060448201526064016106e1565b60007f6e71edae12b1b97f4d1f60370fef10105fa2faae0126114a169c64845d6126c9888888610cad8c611739565b6040805160208101969096526001600160a01b0394851690860152929091166060840152608083015260a082015260c0810186905260e0016040516020818303038152906040528051906020012090506000610d08826116e4565b90506000610d1882878787611711565b9050896001600160a01b0316816001600160a01b031614610d7b5760405162461bcd60e51b815260206004820152601e60248201527f45524332305065726d69743a20696e76616c6964207369676e6174757265000060448201526064016106e1565b610d868a8a8a610e9a565b50505050505050505050565b600082815260056020526040902060010154610dad816111e2565b610661838361139d565b6001600160a01b03918216600090815260016020908152604080832093909416825291909152205490565b60408051808201909152600080825260208201526001600160a01b0383166000908152600b60205260409020805463ffffffff8416908110610e2657610e2661263e565b60009182526020918290206040805180820190915291015463ffffffff8116825264010000000090046001600160e01b0316918101919091529392505050565b6000602083511015610e8257610e7b83611761565b9050610568565b81610e8d84826126a2565b5060ff9050610568565b90565b6001600160a01b038316610efc5760405162461bcd60e51b8152602060048201526024808201527f45524332303a20617070726f76652066726f6d20746865207a65726f206164646044820152637265737360e01b60648201526084016106e1565b6001600160a01b038216610f5d5760405162461bcd60e51b815260206004820152602260248201527f45524332303a20617070726f766520746f20746865207a65726f206164647265604482015261737360f01b60648201526084016106e1565b6001600160a01b0383811660008181526001602090815260408083209487168084529482529182902085905590518481527f8c5be1e5ebec7d5bd14f71427d1e84f3dd0314c0f7b2291e5b200ac8c7c3b925910160405180910390a3505050565b6000610fca8484610db7565b9050600019811461103257818110156110255760405162461bcd60e51b815260206004820152601d60248201527f45524332303a20696e73756666696369656e7420616c6c6f77616e636500000060448201526064016106e1565b6110328484848403610e9a565b50505050565b6001600160a01b03831661109c5760405162461bcd60e51b815260206004820152602560248201527f45524332303a207472616e736665722066726f6d20746865207a65726f206164604482015264647265737360d81b60648201526084016106e1565b6001600160a01b0382166110fe5760405162461bcd60e51b815260206004820152602360248201527f45524332303a207472616e7366657220746f20746865207a65726f206164647260448201526265737360e81b60648201526084016106e1565b6001600160a01b038316600090815260208190526040902054818110156111765760405162461bcd60e51b815260206004820152602660248201527f45524332303a207472616e7366657220616d6f756e7420657863656564732062604482015265616c616e636560d01b60648201526084016106e1565b6001600160a01b03848116600081815260208181526040808320878703905593871680835291849020805487019055925185815290927fddf252ad1be2c89b69c2b068fc378daa952ba7f163c4a11628f55a4df523b3ef910160405180910390a361103284848461179f565b61087581336117aa565b6111f682826109a8565b6106f45760008281526005602090815260408083206001600160a01b03851684529091529020805460ff1916600117905561122e3390565b6001600160a01b0316816001600160a01b0316837f2f8788117e7eff1d82e926ec794901d17c78024a50270940304540a733656f0d60405160405180910390a45050565b6000306001600160a01b037f0000000000000000000000000000000000000000000000000000000000000000161480156112cb57507f000000000000000000000000000000000000000000000000000000000000000046145b156112f557507f000000000000000000000000000000000000000000000000000000000000000090565b610670604080517f8b73c3c69bb8fe3d512ecc4cf759cc79239f7b179b0ffacaa9a75d522b39400f60208201527f0000000000000000000000000000000000000000000000000000000000000000918101919091527f000000000000000000000000000000000000000000000000000000000000000060608201524660808201523060a082015260009060c00160405160208183030381529060405280519060200120905090565b6113a782826109a8565b156106f45760008281526005602090815260408083206001600160a01b0385168085529252808320805460ff1916905551339285917ff6391f5c32d9c69d2a47ea670b442974b53935d1edc7fd64eb21e047a839171b9190a45050565b81546000908181600581111561145e57600061141f84611803565b6114299085612762565b600088815260209020909150869082015463ffffffff16111561144e5780915061145c565b611459816001612615565b92505b505b808210156114ab57600061147283836118eb565b600088815260209020909150869082015463ffffffff161115611497578091506114a5565b6114a2816001612615565b92505b5061145e565b80156114d7576000868152602090208101600019015464010000000090046001600160e01b03166114da565b60005b6001600160e01b03169695505050505050565b6106f48282611906565b6001600160a01b038281166000818152600a60208181526040808420805485845282862054949093528787166001600160a01b03198416811790915590519190951694919391928592917f3134e8a2e6d97e929a7e54011ea5485d7d196dd5f0ba4d4ef95803e8e3fc257f9190a4611032828483611990565b600063ffffffff8211156115d55760405162461bcd60e51b815260206004820152602660248201527f53616665436173743a2076616c756520646f65736e27742066697420696e203360448201526532206269747360d01b60648201526084016106e1565b5090565b606060ff83146115ec57610e7b83611acd565b8180546115f8906125cb565b80601f0160208091040260200160405190810160405280929190818152602001828054611624906125cb565b80156116715780601f1061164657610100808354040283529160200191611671565b820191906000526020600020905b81548152906001019060200180831161165457829003601f168201915b50505050509050610568565b600065ffffffffffff8211156115d55760405162461bcd60e51b815260206004820152602660248201527f53616665436173743a2076616c756520646f65736e27742066697420696e203460448201526538206269747360d01b60648201526084016106e1565b60006105686116f1611272565b8360405161190160f01b8152600281019290925260228201526042902090565b600080600061172287878787611b0c565b9150915061172f81611bd0565b5095945050505050565b6001600160a01b03811660009081526008602052604090208054600181018255905b50919050565b600080829050601f8151111561178c578260405163305a27a960e01b81526004016106e19190612303565b805161179782612775565b179392505050565b610661838383611d1a565b6117b482826109a8565b6106f4576117c181611d4c565b6117cc836020611d5e565b6040516020016117dd929190612799565b60408051601f198184030181529082905262461bcd60e51b82526106e191600401612303565b60008160000361181557506000919050565b6000600161182284611efa565b901c6001901b9050600181848161183b5761183b61280e565b048201901c905060018184816118535761185361280e565b048201901c9050600181848161186b5761186b61280e565b048201901c905060018184816118835761188361280e565b048201901c9050600181848161189b5761189b61280e565b048201901c905060018184816118b3576118b361280e565b048201901c905060018184816118cb576118cb61280e565b048201901c9050610798818285816118e5576118e561280e565b04611f8e565b60006118fa6002848418612824565b61079890848416612615565b6119108282611fa4565b6002546001600160e01b0310156119825760405162461bcd60e51b815260206004820152603060248201527f4552433230566f7465733a20746f74616c20737570706c79207269736b73206f60448201526f766572666c6f77696e6720766f74657360801b60648201526084016106e1565b611032600c61206b83612077565b816001600160a01b0316836001600160a01b0316141580156119b25750600081115b15610661576001600160a01b03831615611a40576001600160a01b0383166000908152600b6020526040812081906119ed906121ec85612077565b91509150846001600160a01b03167fdec2bacdd2f05b59de34da9b523dff8be42e5e38e818c82fdb0bae774387a7248383604051611a35929190918252602082015260400190565b60405180910390a250505b6001600160a01b03821615610661576001600160a01b0382166000908152600b602052604081208190611a769061206b85612077565b91509150836001600160a01b03167fdec2bacdd2f05b59de34da9b523dff8be42e5e38e818c82fdb0bae774387a7248383604051611abe929190918252602082015260400190565b60405180910390a25050505050565b60606000611ada836121f8565b604080516020808252818301909252919250600091906020820181803683375050509182525060208101929092525090565b6000807f7fffffffffffffffffffffffffffffff5d576e7357a4501ddfe92f46681b20a0831115611b435750600090506003611bc7565b6040805160008082526020820180845289905260ff881692820192909252606081018690526080810185905260019060a0016020604051602081039080840390855afa158015611b97573d6000803e3d6000fd5b5050604051601f1901519150506001600160a01b038116611bc057600060019250925050611bc7565b9150600090505b94509492505050565b6000816004811115611be457611be4612846565b03611bec5750565b6001816004811115611c0057611c00612846565b03611c4d5760405162461bcd60e51b815260206004820152601860248201527f45434453413a20696e76616c6964207369676e6174757265000000000000000060448201526064016106e1565b6002816004811115611c6157611c61612846565b03611cae5760405162461bcd60e51b815260206004820152601f60248201527f45434453413a20696e76616c6964207369676e6174757265206c656e6774680060448201526064016106e1565b6003816004811115611cc257611cc2612846565b036108755760405162461bcd60e51b815260206004820152602260248201527f45434453413a20696e76616c6964207369676e6174757265202773272076616c604482015261756560f01b60648201526084016106e1565b6001600160a01b038381166000908152600a602052604080822054858416835291205461066192918216911683611990565b60606105686001600160a01b03831660145b60606000611d6d83600261285c565b611d78906002612615565b67ffffffffffffffff811115611d9057611d90612628565b6040519080825280601f01601f191660200182016040528015611dba576020820181803683370190505b509050600360fc1b81600081518110611dd557611dd561263e565b60200101906001600160f81b031916908160001a905350600f60fb1b81600181518110611e0457611e0461263e565b60200101906001600160f81b031916908160001a9053506000611e2884600261285c565b611e33906001612615565b90505b6001811115611eab576f181899199a1a9b1b9c1cb0b131b232b360811b85600f1660108110611e6757611e6761263e565b1a60f81b828281518110611e7d57611e7d61263e565b60200101906001600160f81b031916908160001a90535060049490941c93611ea481612873565b9050611e36565b5083156107985760405162461bcd60e51b815260206004820181905260248201527f537472696e67733a20686578206c656e67746820696e73756666696369656e7460448201526064016106e1565b600080608083901c15611f0f57608092831c92015b604083901c15611f2157604092831c92015b602083901c15611f3357602092831c92015b601083901c15611f4557601092831c92015b600883901c15611f5757600892831c92015b600483901c15611f6957600492831c92015b600283901c15611f7b57600292831c92015b600183901c156105685760010192915050565b6000818310611f9d5781610798565b5090919050565b6001600160a01b038216611ffa5760405162461bcd60e51b815260206004820152601f60248201527f45524332303a206d696e7420746f20746865207a65726f20616464726573730060448201526064016106e1565b806002600082825461200c9190612615565b90915550506001600160a01b038216600081815260208181526040808320805486019055518481527fddf252ad1be2c89b69c2b068fc378daa952ba7f163c4a11628f55a4df523b3ef910160405180910390a36106f46000838361179f565b60006107988284612615565b825460009081908181156120c45760008781526020902082016000190160408051808201909152905463ffffffff8116825264010000000090046001600160e01b031660208201526120d9565b60408051808201909152600080825260208201525b905080602001516001600160e01b031693506120f984868863ffffffff16565b9250600082118015612123575061210e6109d3565b65ffffffffffff16816000015163ffffffff16145b156121685761213183612220565b60008881526020902083016000190180546001600160e01b03929092166401000000000263ffffffff9092169190911790556121e2565b86604051806040016040528061218c61217f6109d3565b65ffffffffffff16611570565b63ffffffff1681526020016121a086612220565b6001600160e01b0390811690915282546001810184556000938452602093849020835194909301519091166401000000000263ffffffff909316929092179101555b5050935093915050565b60006107988284612762565b600060ff8216601f81111561056857604051632cd44ac360e21b815260040160405180910390fd5b60006001600160e01b038211156115d55760405162461bcd60e51b815260206004820152602760248201527f53616665436173743a2076616c756520646f65736e27742066697420696e20326044820152663234206269747360c81b60648201526084016106e1565b60006020828403121561229b57600080fd5b81356001600160e01b03198116811461079857600080fd5b60005b838110156122ce5781810151838201526020016122b6565b50506000910152565b600081518084526122ef8160208601602086016122b3565b601f01601f19169290920160200192915050565b60208152600061079860208301846122d7565b80356001600160a01b038116811461232d57600080fd5b919050565b6000806040838503121561234557600080fd5b61234e83612316565b946020939093013593505050565b60008060006060848603121561237157600080fd5b61237a84612316565b925061238860208501612316565b9150604084013590509250925092565b6000602082840312156123aa57600080fd5b5035919050565b600080604083850312156123c457600080fd5b823591506123d460208401612316565b90509250929050565b6000602082840312156123ef57600080fd5b61079882612316565b60ff60f81b881681526000602060e08184015261241860e084018a6122d7565b838103604085015261242a818a6122d7565b606085018990526001600160a01b038816608086015260a0850187905284810360c0860152855180825283870192509083019060005b8181101561247c57835183529284019291840191600101612460565b50909c9b505050505050505050505050565b803560ff8116811461232d57600080fd5b60008060008060008060c087890312156124b857600080fd5b6124c187612316565b955060208701359450604087013593506124dd6060880161248e565b92506080870135915060a087013590509295509295509295565b600080600080600080600060e0888a03121561251257600080fd5b61251b88612316565b965061252960208901612316565b955060408801359450606088013593506125456080890161248e565b925060a0880135915060c0880135905092959891949750929550565b6000806040838503121561257457600080fd5b61257d83612316565b91506123d460208401612316565b6000806040838503121561259e57600080fd5b6125a783612316565b9150602083013563ffffffff811681146125c057600080fd5b809150509250929050565b600181811c908216806125df57607f821691505b60208210810361175b57634e487b7160e01b600052602260045260246000fd5b634e487b7160e01b600052601160045260246000fd5b80820180821115610568576105686125ff565b634e487b7160e01b600052604160045260246000fd5b634e487b7160e01b600052603260045260246000fd5b601f82111561066157600081815260208120601f850160051c8101602086101561267b5750805b601f850160051c820191505b8181101561269a57828155600101612687565b505050505050565b815167ffffffffffffffff8111156126bc576126bc612628565b6126d0816126ca84546125cb565b84612654565b602080601f83116001811461270557600084156126ed5750858301515b600019600386901b1c1916600185901b17855561269a565b600085815260208120601f198616915b8281101561273457888601518255948401946001909101908401612715565b50858210156127525787850151600019600388901b60f8161c191681555b5050505050600190811b01905550565b81810381811115610568576105686125ff565b8051602080830151919081101561175b5760001960209190910360031b1b16919050565b7f416363657373436f6e74726f6c3a206163636f756e74200000000000000000008152600083516127d18160178501602088016122b3565b7001034b99036b4b9b9b4b733903937b6329607d1b60179184019182015283516128028160288401602088016122b3565b01602801949350505050565b634e487b7160e01b600052601260045260246000fd5b60008261284157634e487b7160e01b600052601260045260246000fd5b500490565b634e487b7160e01b600052602160045260246000fd5b8082028115828204841417610568576105686125ff565b600081612882576128826125ff565b50600019019056fea264697066735822122067bc4344f90d02ebfce62b877695c6b80cd3b0320934709c23e95be7ef99709064736f6c63430008110033",
  "linkReferences": {},
  "deployedLinkReferences": {}
}